{
  "contractName": "AddressMerkleTree",
  "abi": [
    {
      "inputs": [],
      "name": "feeAmount",
      "outputs": [
        {
          "internalType": "uint256",
          "name": "",
          "type": "uint256"
        }
      ],
      "stateMutability": "view",
      "type": "function",
      "constant": true
    },
    {
      "inputs": [
        {
          "internalType": "uint256",
          "name": "",
          "type": "uint256"
        }
      ],
      "name": "merkleTree",
      "outputs": [
        {
          "internalType": "bytes32",
          "name": "",
          "type": "bytes32"
        }
      ],
      "stateMutability": "view",
      "type": "function",
      "constant": true
    },
    {
      "inputs": [],
      "name": "addKey",
      "outputs": [],
      "stateMutability": "payable",
      "type": "function",
      "payable": true
    },
    {
      "inputs": [],
      "name": "getMerkleTree",
      "outputs": [
        {
          "internalType": "bytes32[]",
          "name": "",
          "type": "bytes32[]"
        }
      ],
      "stateMutability": "view",
      "type": "function",
      "constant": true
    }
  ],
  "bytecode": "0x608060405260018055348015610013575f80fd5b506104b7806100215f395ff3fe60806040526004361061003e575f3560e01c80630df0ff90146100425780634d66901a1461007e57806369e1540414610088578063d05f7ca0146100b2575b5f80fd5b34801561004d575f80fd5b506100686004803603810190610063919061021f565b6100dc565b6040516100759190610262565b60405180910390f35b6100866100fb565b005b348015610093575f80fd5b5061009c61018d565b6040516100a9919061028a565b60405180910390f35b3480156100bd575f80fd5b506100c6610193565b6040516100d3919061035a565b60405180910390f35b5f81815481106100ea575f80fd5b905f5260205f20015f915090505481565b600154341015610140576040517f08c379a0000000000000000000000000000000000000000000000000000000008152600401610137906103d4565b60405180910390fd5b5f336040516020016101529190610467565b60405160208183030381529060405280519060200120908060018154018082558091505060019003905f5260205f20015f9091909190915055565b60015481565b60605f8054806020026020016040519081016040528092919081815260200182805480156101de57602002820191905f5260205f20905b8154815260200190600101908083116101ca575b5050505050905090565b5f80fd5b5f819050919050565b6101fe816101ec565b8114610208575f80fd5b50565b5f81359050610219816101f5565b92915050565b5f60208284031215610234576102336101e8565b5b5f6102418482850161020b565b91505092915050565b5f819050919050565b61025c8161024a565b82525050565b5f6020820190506102755f830184610253565b92915050565b610284816101ec565b82525050565b5f60208201905061029d5f83018461027b565b92915050565b5f81519050919050565b5f82825260208201905092915050565b5f819050602082019050919050565b6102d58161024a565b82525050565b5f6102e683836102cc565b60208301905092915050565b5f602082019050919050565b5f610308826102a3565b61031281856102ad565b935061031d836102bd565b805f5b8381101561034d57815161033488826102db565b975061033f836102f2565b925050600181019050610320565b5085935050505092915050565b5f6020820190508181035f83015261037281846102fe565b905092915050565b5f82825260208201905092915050565b7f496e73756666696369656e742066656520666f7220616464696e67206b6579005f82015250565b5f6103be601f8361037a565b91506103c98261038a565b602082019050919050565b5f6020820190508181035f8301526103eb816103b2565b9050919050565b5f73ffffffffffffffffffffffffffffffffffffffff82169050919050565b5f61041b826103f2565b9050919050565b5f8160601b9050919050565b5f61043882610422565b9050919050565b5f6104498261042e565b9050919050565b61046161045c82610411565b61043f565b82525050565b5f6104728284610450565b6014820191508190509291505056fea26469706673582212207c2391cb3858e36b04871c2364c99929244d547a29acabafa8ee269030b9fe5764736f6c63430008150033",
  "immutableReferences": {},
  "source": "// SPDX-License-Identifier: MIT\npragma solidity ^0.8.0;\n\ncontract AddressMerkleTree {\n  bytes32[] public merkleTree;\n  uint256 public feeAmount = 1; \n\n\n  function addKey() public payable {\n    require(msg.value >= feeAmount, \"Insufficient fee for adding key\");\n    // require(!exists(keccak256(abi.encodePacked(msg.sender))), \"Address already exists in the Merkle tree\");\n    merkleTree.push(keccak256(abi.encodePacked(msg.sender))); // Add sender's address hash as a leaf\n\n    // Send the fee to the contract address\n    // payable(address(this)).transfer(feeAmount);\n  }\n\n\n  function getMerkleTree() public view returns (bytes32[] memory) {\n    return merkleTree;\n  }\n}\n",
  "sourcePath": "/home/jonathan/Documents/tmp/merkle-contract/contracts/tree.sol",
  "compiler": {
    "name": "solc",
    "version": "0.8.21+commit.d9974bed.Emscripten.clang"
  },
  "schemaVersion": "3.4.16",
  "updatedAt": "2024-07-18T18:17:02.408Z",
  "networkType": "ethereum",
  "devdoc": {
    "kind": "dev",
    "methods": {},
    "version": 1
  },
  "userdoc": {
    "kind": "user",
    "methods": {},
    "version": 1
  }
}